{
  "transactions": [
    {
      "hash": "0xdb189f05d98ac28fb2f06c221ea4af04ce2a7579131b8dc7f96f51bfaab928a1",
      "transactionType": "CALL",
      "contractName": null,
      "contractAddress": "0x779877A7B0D9E8603169DdbD7836e478b4624789",
      "function": "transferAndCall(address,uint256,bytes)",
      "arguments": [
        "0x8103B0A8A00be2DDC778e6e7eaa21791Cd364625",
        "3000000000000000000",
        "0x0000000000000000000000000000000000000000000000000000000000002394"
      ],
      "transaction": {
        "type": "0x02",
        "from": "0xf39fd6e51aad88f6f4ce6ab8827279cfffb92266",
        "to": "0x779877a7b0d9e8603169ddbd7836e478b4624789",
        "gas": "0x1b43f",
        "value": "0x0",
        "data": "0x4000aea00000000000000000000000008103b0a8a00be2ddc778e6e7eaa21791cd36462500000000000000000000000000000000000000000000000029a2241af62c0000000000000000000000000000000000000000000000000000000000000000006000000000000000000000000000000000000000000000000000000000000000200000000000000000000000000000000000000000000000000000000000002394",
        "nonce": "0x120f",
        "accessList": []
      },
      "additionalContracts": [],
      "isFixedGasLimit": false
    }
  ],
  "receipts": [
    {
      "transactionHash": "0xdb189f05d98ac28fb2f06c221ea4af04ce2a7579131b8dc7f96f51bfaab928a1",
      "transactionIndex": "0x10",
      "blockHash": "0x48c68850582b295439bf0a18d8e84f82a491e13f9010d4a901fc467df6d0c866",
      "blockNumber": "0x4f882f",
      "from": "0xf39Fd6e51aad88F6F4ce6aB8827279cffFb92266",
      "to": "0x779877A7B0D9E8603169DdbD7836e478b4624789",
      "cumulativeGasUsed": "0x1d243e",
      "gasUsed": "0x12a4a",
      "contractAddress": null,
      "logs": [
        {
          "address": "0x779877A7B0D9E8603169DdbD7836e478b4624789",
          "topics": [
            "0xddf252ad1be2c89b69c2b068fc378daa952ba7f163c4a11628f55a4df523b3ef",
            "0x000000000000000000000000f39fd6e51aad88f6f4ce6ab8827279cfffb92266",
            "0x0000000000000000000000008103b0a8a00be2ddc778e6e7eaa21791cd364625"
          ],
          "data": "0x00000000000000000000000000000000000000000000000029a2241af62c0000",
          "blockHash": "0x48c68850582b295439bf0a18d8e84f82a491e13f9010d4a901fc467df6d0c866",
          "blockNumber": "0x4f882f",
          "transactionHash": "0xdb189f05d98ac28fb2f06c221ea4af04ce2a7579131b8dc7f96f51bfaab928a1",
          "transactionIndex": "0x10",
          "logIndex": "0x24",
          "removed": false
        },
        {
          "address": "0x779877A7B0D9E8603169DdbD7836e478b4624789",
          "topics": [
            "0xe19260aff97b920c7df27010903aeb9c8d2be5d310a2c67824cf3f15396e4c16",
            "0x000000000000000000000000f39fd6e51aad88f6f4ce6ab8827279cfffb92266",
            "0x0000000000000000000000008103b0a8a00be2ddc778e6e7eaa21791cd364625"
          ],
          "data": "0x00000000000000000000000000000000000000000000000029a2241af62c0000000000000000000000000000000000000000000000000000000000000000004000000000000000000000000000000000000000000000000000000000000000200000000000000000000000000000000000000000000000000000000000002394",
          "blockHash": "0x48c68850582b295439bf0a18d8e84f82a491e13f9010d4a901fc467df6d0c866",
          "blockNumber": "0x4f882f",
          "transactionHash": "0xdb189f05d98ac28fb2f06c221ea4af04ce2a7579131b8dc7f96f51bfaab928a1",
          "transactionIndex": "0x10",
          "logIndex": "0x25",
          "removed": false
        },
        {
          "address": "0x8103B0A8A00be2DDC778e6e7eaa21791Cd364625",
          "topics": [
            "0xd39ec07f4e209f627a4c427971473820dc129761ba28de8906bd56f57101d4f8",
            "0x0000000000000000000000000000000000000000000000000000000000002394"
          ],
          "data": "0x000000000000000000000000000000000000000000000000000000000000000000000000000000000000000000000000000000000000000029a2241af62c0000",
          "blockHash": "0x48c68850582b295439bf0a18d8e84f82a491e13f9010d4a901fc467df6d0c866",
          "blockNumber": "0x4f882f",
          "transactionHash": "0xdb189f05d98ac28fb2f06c221ea4af04ce2a7579131b8dc7f96f51bfaab928a1",
          "transactionIndex": "0x10",
          "logIndex": "0x26",
          "removed": false
        }
      ],
      "status": "0x1",
      "logsBloom": "0x0000001400000000000000000000000000000000000080020000000002000000000000000000800000000000000000000000000000000000000000000000000000000000000000000000000800000000000000000000000000002000000000000000000000000000000000010000000000000000400000000000001000000000000000000c000020000000000000800010000020000000000000000000000000000000000000000000000000000000000000000000000000000400000000000000000002000000200000000000000000000000002000000100000000000000000000000000000000000000040000000000000000000000000000000000000000",
      "type": "0x2",
      "effectiveGasPrice": "0x1c5ad2cb9"
    }
  ],
  "libraries": [],
  "pending": [],
  "returns": {},
  "timestamp": 1706978784,
  "chain": 11155111,
  "multi": false,
  "commit": "eee6343"
}