{
  "transactions": [
    {
      "hash": "0x6eeebb8c4e21100ee15b99b3fab1e59204de64c28099ebafe6290bf8bf383786",
      "transactionType": "CALL",
      "contractName": null,
      "contractAddress": "0x8103B0A8A00be2DDC778e6e7eaa21791Cd364625",
      "function": "createSubscription()",
      "arguments": [],
      "transaction": {
        "type": "0x02",
        "from": "0x11fc3f5cc69d96020b000de9bca180eeb60ce6ca",
        "to": "0x8103b0a8a00be2ddc778e6e7eaa21791cd364625",
        "gas": "0x1558c",
        "value": "0x0",
        "data": "0xa21a23e4",
        "nonce": "0x29",
        "accessList": []
      },
      "additionalContracts": [],
      "isFixedGasLimit": false
    },
    {
      "hash": "0x5e3c64d525bfad6f91283358407eb821ddcbe3ec4f27100bcc1ca6f2a62e7f85",
      "transactionType": "CALL",
      "contractName": null,
      "contractAddress": "0x779877A7B0D9E8603169DdbD7836e478b4624789",
      "function": "transferAndCall(address,uint256,bytes)",
      "arguments": [
        "0x8103B0A8A00be2DDC778e6e7eaa21791Cd364625",
        "3000000000000000000",
        "0x00000000000000000000000000000000000000000000000000000000000024c3"
      ],
      "transaction": {
        "type": "0x02",
        "from": "0x11fc3f5cc69d96020b000de9bca180eeb60ce6ca",
        "to": "0x779877a7b0d9e8603169ddbd7836e478b4624789",
        "gas": "0x1b43f",
        "value": "0x0",
        "data": "0x4000aea00000000000000000000000008103b0a8a00be2ddc778e6e7eaa21791cd36462500000000000000000000000000000000000000000000000029a2241af62c00000000000000000000000000000000000000000000000000000000000000000060000000000000000000000000000000000000000000000000000000000000002000000000000000000000000000000000000000000000000000000000000024c3",
        "nonce": "0x2a",
        "accessList": []
      },
      "additionalContracts": [],
      "isFixedGasLimit": false
    },
    {
      "hash": "0x24ced5e421e9662570dc70319663e52dc975924b3439520ab69a95cd0c236c07",
      "transactionType": "CREATE",
      "contractName": "Raffle",
      "contractAddress": "0x94c16b5FA99211c91A06B5993B4ab8608C8E8b5D",
      "function": null,
      "arguments": [
        "10000000000000000",
        "30",
        "0x8103B0A8A00be2DDC778e6e7eaa21791Cd364625",
        "0x474e34a077df58807dbe9c96d3c009b23b3c6d0cce433e59bbf5b34f823bc56c",
        "9411",
        "500000"
      ],
      "transaction": {
        "type": "0x02",
        "from": "0x11fc3f5cc69d96020b000de9bca180eeb60ce6ca",
        "gas": "0xdddd0",
        "value": "0x0",
        "data": "0x61016060405234801561001157600080fd5b50604051610ca5380380610ca583398101604081905261003091610087565b6001600160a01b0393909316608081905260a09590955260c09390935260e093909352610100929092526001600160401b03166101205263ffffffff1661014052426001556002805460ff60a01b19169055610112565b60008060008060008060c087890312156100a057600080fd5b86516020880151604089015191975095506001600160a01b03811681146100c657600080fd5b6060880151608089015191955093506001600160401b03811681146100ea57600080fd5b60a088015190925063ffffffff8116811461010457600080fd5b809150509295509295509295565b60805160a05160c05160e051610100516101205161014051610b2c610179600039600061045c01526000610425015260006103ff0152600061049a0152600061054301526000818160a501526102820152600081816101fe01526102400152610b2c6000f3fe6080604052600436106100915760003560e01c80634585e33b116100595780634585e33b1461013e578063473f1ddc1461015e5780636e04ff0d14610190578063c1c244e8146101be578063e55ae4e8146101d357600080fd5b806309bc33a7146100965780630ea3df38146100d8578063115cbaf5146100ed5780631fe543e3146101145780632cfcc53914610136575b600080fd5b3480156100a257600080fd5b507f00000000000000000000000000000000000000000000000000000000000000005b6040519081526020015b60405180910390f35b3480156100e457600080fd5b506000546100c5565b3480156100f957600080fd5b50600254600160a01b900460ff166040516100cf91906107e4565b34801561012057600080fd5b5061013461012f366004610853565b6101f3565b005b610134610280565b34801561014a57600080fd5b50610134610159366004610905565b61036b565b34801561016a57600080fd5b506002546001600160a01b03165b6040516001600160a01b0390911681526020016100cf565b34801561019c57600080fd5b506101b06101ab366004610977565b61053b565b6040516100cf929190610a0c565b3480156101ca57600080fd5b506001546100c5565b3480156101df57600080fd5b506101786101ee366004610a65565b6105e8565b336001600160a01b037f000000000000000000000000000000000000000000000000000000000000000016146102725760405163073e64fd60e21b81523360048201526001600160a01b037f00000000000000000000000000000000000000000000000000000000000000001660248201526044015b60405180910390fd5b61027c8282610617565b5050565b7f00000000000000000000000000000000000000000000000000000000000000003410156102c15760405163246b904d60e01b815260040160405180910390fd5b6000600254600160a01b900460ff1660018111156102e1576102e16107ce565b146102ff5760405163349289c560e21b815260040160405180910390fd5b600080546001810182558180527f290decd9548b62a8d60345a988386fc84ba6bc95484008f6362f93160ef3e5630180546001600160a01b0319163390811790915560405190917f819fbd717c9d0b421352c5116a644ca68ba176960c33f406f08d98a27370ca2791a2565b60006103856040518060200160405280600081525061053b565b509050806103db57600054600254479190600160a01b900460ff1660018111156103b1576103b16107ce565b604051632c2193d560e11b8152600481019390935260248301919091526044820152606401610269565b60028054600160a01b60ff60a01b199091161790556040516305d3b1d360e41b81527f000000000000000000000000000000000000000000000000000000000000000060048201527f000000000000000000000000000000000000000000000000000000000000000067ffffffffffffffff166024820152600360448201527f000000000000000000000000000000000000000000000000000000000000000063ffffffff166064820152600160848201526000906001600160a01b037f00000000000000000000000000000000000000000000000000000000000000001690635d3b1d309060a4016020604051808303816000875af11580156104e3573d6000803e3d6000fd5b505050506040513d601f19601f820116820180604052508101906105079190610a7e565b60405190915081907fcd6e45c8998311cab7e9d4385596cac867e20a0587194b954fa3a731c93ce78b90600090a250505050565b6000606060007f0000000000000000000000000000000000000000000000000000000000000000600154426105709190610a97565b101590506000600260149054906101000a900460ff166001811115610597576105976107ce565b600054901591504715159015158380156105ae5750825b80156105b75750815b80156105c05750805b60408051808201909152600381526203078360ec1b6020820152909890975095505050505050565b60008082815481106105fc576105fc610abe565b6000918252602090912001546001600160a01b031692915050565b6000805482518390839061062d5761062d610abe565b602002602001015161063f9190610ad4565b9050600080828154811061065557610655610abe565b600091825260208083209190910154600280546001600160a81b0319166001600160a01b039092169182179055604080518481529283019081905291519093506106a0929190610754565b50426001556040516001600160a01b038216907fb112587e57bfa970257f3d54fc52859c6300f6bd7a982462c320fed45c2530ed90600090a26000816001600160a01b03164760405160006040518083038185875af1925050503d8060008114610726576040519150601f19603f3d011682016040523d82523d6000602084013e61072b565b606091505b505090508061074d5760405163a1d04b3960e01b815260040160405180910390fd5b5050505050565b8280548282559060005260206000209081019282156107a9579160200282015b828111156107a957825182546001600160a01b0319166001600160a01b03909116178255602090920191600190910190610774565b506107b59291506107b9565b5090565b5b808211156107b557600081556001016107ba565b634e487b7160e01b600052602160045260246000fd5b602081016002831061080657634e487b7160e01b600052602160045260246000fd5b91905290565b634e487b7160e01b600052604160045260246000fd5b604051601f8201601f1916810167ffffffffffffffff8111828210171561084b5761084b61080c565b604052919050565b6000806040838503121561086657600080fd5b8235915060208084013567ffffffffffffffff8082111561088657600080fd5b818601915086601f83011261089a57600080fd5b8135818111156108ac576108ac61080c565b8060051b91506108bd848301610822565b81815291830184019184810190898411156108d757600080fd5b938501935b838510156108f5578435825293850193908501906108dc565b8096505050505050509250929050565b6000806020838503121561091857600080fd5b823567ffffffffffffffff8082111561093057600080fd5b818501915085601f83011261094457600080fd5b81358181111561095357600080fd5b86602082850101111561096557600080fd5b60209290920196919550909350505050565b6000602080838503121561098a57600080fd5b823567ffffffffffffffff808211156109a257600080fd5b818501915085601f8301126109b657600080fd5b8135818111156109c8576109c861080c565b6109da601f8201601f19168501610822565b915080825286848285010111156109f057600080fd5b8084840185840137600090820190930192909252509392505050565b82151581526000602060406020840152835180604085015260005b81811015610a4357858101830151858201606001528201610a27565b506000606082860101526060601f19601f830116850101925050509392505050565b600060208284031215610a7757600080fd5b5035919050565b600060208284031215610a9057600080fd5b5051919050565b81810381811115610ab857634e487b7160e01b600052601160045260246000fd5b92915050565b634e487b7160e01b600052603260045260246000fd5b600082610af157634e487b7160e01b600052601260045260246000fd5b50069056fea264697066735822122087f017dcaecef842cb46541fe8f2f863d3351e8e7d2b0851b31530d0e725451364736f6c63430008170033000000000000000000000000000000000000000000000000002386f26fc10000000000000000000000000000000000000000000000000000000000000000001e0000000000000000000000008103b0a8a00be2ddc778e6e7eaa21791cd364625474e34a077df58807dbe9c96d3c009b23b3c6d0cce433e59bbf5b34f823bc56c00000000000000000000000000000000000000000000000000000000000024c3000000000000000000000000000000000000000000000000000000000007a120",
        "nonce": "0x2b",
        "accessList": []
      },
      "additionalContracts": [],
      "isFixedGasLimit": false
    },
    {
      "hash": "0x47cdb794bdb4bf801ed4b935049630a875434c372fd39d1353706d0ed759d8fd",
      "transactionType": "CALL",
      "contractName": null,
      "contractAddress": "0x8103B0A8A00be2DDC778e6e7eaa21791Cd364625",
      "function": "addConsumer(uint64,address)",
      "arguments": [
        "9411",
        "0x94c16b5FA99211c91A06B5993B4ab8608C8E8b5D"
      ],
      "transaction": {
        "type": "0x02",
        "from": "0x11fc3f5cc69d96020b000de9bca180eeb60ce6ca",
        "to": "0x8103b0a8a00be2ddc778e6e7eaa21791cd364625",
        "gas": "0x21eb0",
        "value": "0x0",
        "data": "0x7341c10c00000000000000000000000000000000000000000000000000000000000024c300000000000000000000000094c16b5fa99211c91a06b5993b4ab8608c8e8b5d",
        "nonce": "0x2c",
        "accessList": []
      },
      "additionalContracts": [],
      "isFixedGasLimit": false
    }
  ],
  "receipts": [
    {
      "transactionHash": "0x6eeebb8c4e21100ee15b99b3fab1e59204de64c28099ebafe6290bf8bf383786",
      "transactionIndex": "0x10",
      "blockHash": "0xb39c17a56f054d6646f3e1580dd833cbe310f06ccc9c4ecd902802e41fd30ae2",
      "blockNumber": "0x50d4e4",
      "from": "0x11fc3f5Cc69d96020b000DE9BCA180eeb60CE6CA",
      "to": "0x8103B0A8A00be2DDC778e6e7eaa21791Cd364625",
      "cumulativeGasUsed": "0x214d68",
      "gasUsed": "0xe98a",
      "contractAddress": null,
      "logs": [
        {
          "address": "0x8103B0A8A00be2DDC778e6e7eaa21791Cd364625",
          "topics": [
            "0x464722b4166576d3dcbba877b999bc35cf911f4eaf434b7eba68fa113951d0bf",
            "0x00000000000000000000000000000000000000000000000000000000000024c3"
          ],
          "data": "0x00000000000000000000000011fc3f5cc69d96020b000de9bca180eeb60ce6ca",
          "blockHash": "0xb39c17a56f054d6646f3e1580dd833cbe310f06ccc9c4ecd902802e41fd30ae2",
          "blockNumber": "0x50d4e4",
          "transactionHash": "0x6eeebb8c4e21100ee15b99b3fab1e59204de64c28099ebafe6290bf8bf383786",
          "transactionIndex": "0x10",
          "logIndex": "0x19",
          "removed": false
        }
      ],
      "status": "0x1",
      "logsBloom": "0x0000000000000000000001000000000000000000000000000000000000008000010000000000000001000000000000000200000000000000000000000000000000000000000000000000000000000000000000000000000000000000000000000000000000000000000000000000000000000000000000000000000000000000000000000c000020000000000000000000000000000000000000000000000000000000000000000000000000000000000000000000000000000000000000000000000000000000200000000000000000000000000000000000000000000000000000000000000000000000000000000000000000000000000000000000000000",
      "type": "0x2",
      "effectiveGasPrice": "0xba782be9"
    },
    {
      "transactionHash": "0x5e3c64d525bfad6f91283358407eb821ddcbe3ec4f27100bcc1ca6f2a62e7f85",
      "transactionIndex": "0x11",
      "blockHash": "0xb39c17a56f054d6646f3e1580dd833cbe310f06ccc9c4ecd902802e41fd30ae2",
      "blockNumber": "0x50d4e4",
      "from": "0x11fc3f5Cc69d96020b000DE9BCA180eeb60CE6CA",
      "to": "0x779877A7B0D9E8603169DdbD7836e478b4624789",
      "cumulativeGasUsed": "0x2277b2",
      "gasUsed": "0x12a4a",
      "contractAddress": null,
      "logs": [
        {
          "address": "0x779877A7B0D9E8603169DdbD7836e478b4624789",
          "topics": [
            "0xddf252ad1be2c89b69c2b068fc378daa952ba7f163c4a11628f55a4df523b3ef",
            "0x00000000000000000000000011fc3f5cc69d96020b000de9bca180eeb60ce6ca",
            "0x0000000000000000000000008103b0a8a00be2ddc778e6e7eaa21791cd364625"
          ],
          "data": "0x00000000000000000000000000000000000000000000000029a2241af62c0000",
          "blockHash": "0xb39c17a56f054d6646f3e1580dd833cbe310f06ccc9c4ecd902802e41fd30ae2",
          "blockNumber": "0x50d4e4",
          "transactionHash": "0x5e3c64d525bfad6f91283358407eb821ddcbe3ec4f27100bcc1ca6f2a62e7f85",
          "transactionIndex": "0x11",
          "logIndex": "0x1a",
          "removed": false
        },
        {
          "address": "0x779877A7B0D9E8603169DdbD7836e478b4624789",
          "topics": [
            "0xe19260aff97b920c7df27010903aeb9c8d2be5d310a2c67824cf3f15396e4c16",
            "0x00000000000000000000000011fc3f5cc69d96020b000de9bca180eeb60ce6ca",
            "0x0000000000000000000000008103b0a8a00be2ddc778e6e7eaa21791cd364625"
          ],
          "data": "0x00000000000000000000000000000000000000000000000029a2241af62c00000000000000000000000000000000000000000000000000000000000000000040000000000000000000000000000000000000000000000000000000000000002000000000000000000000000000000000000000000000000000000000000024c3",
          "blockHash": "0xb39c17a56f054d6646f3e1580dd833cbe310f06ccc9c4ecd902802e41fd30ae2",
          "blockNumber": "0x50d4e4",
          "transactionHash": "0x5e3c64d525bfad6f91283358407eb821ddcbe3ec4f27100bcc1ca6f2a62e7f85",
          "transactionIndex": "0x11",
          "logIndex": "0x1b",
          "removed": false
        },
        {
          "address": "0x8103B0A8A00be2DDC778e6e7eaa21791Cd364625",
          "topics": [
            "0xd39ec07f4e209f627a4c427971473820dc129761ba28de8906bd56f57101d4f8",
            "0x00000000000000000000000000000000000000000000000000000000000024c3"
          ],
          "data": "0x000000000000000000000000000000000000000000000000000000000000000000000000000000000000000000000000000000000000000029a2241af62c0000",
          "blockHash": "0xb39c17a56f054d6646f3e1580dd833cbe310f06ccc9c4ecd902802e41fd30ae2",
          "blockNumber": "0x50d4e4",
          "transactionHash": "0x5e3c64d525bfad6f91283358407eb821ddcbe3ec4f27100bcc1ca6f2a62e7f85",
          "transactionIndex": "0x11",
          "logIndex": "0x1c",
          "removed": false
        }
      ],
      "status": "0x1",
      "logsBloom": "0x0000001400000000000000000000000000000000000000020000000002008000000000000000800021000000000000000200000000000000000000000000000000000000000000000000000800000000000000000000000000002000800000000000000000000000000000000000000000000000400000000000001000000000000000000c000020000000000000800010000020000000000008000000000000000000000000000000000000000000000000000000000000000400000000000000000002000000000000000000000000000000000000000100000000000000000000000000000000000000000000000000000000000000000000000000000000",
      "type": "0x2",
      "effectiveGasPrice": "0xba782be9"
    },
    {
      "transactionHash": "0x24ced5e421e9662570dc70319663e52dc975924b3439520ab69a95cd0c236c07",
      "transactionIndex": "0x12",
      "blockHash": "0xb39c17a56f054d6646f3e1580dd833cbe310f06ccc9c4ecd902802e41fd30ae2",
      "blockNumber": "0x50d4e4",
      "from": "0x11fc3f5Cc69d96020b000DE9BCA180eeb60CE6CA",
      "to": null,
      "cumulativeGasUsed": "0x2d232a",
      "gasUsed": "0xaab78",
      "contractAddress": "0x94c16b5FA99211c91A06B5993B4ab8608C8E8b5D",
      "logs": [],
      "status": "0x1",
      "logsBloom": "0x00000000000000000000000000000000000000000000000000000000000000000000000000000000000000000000000000000000000000000000000000000000000000000000000000000000000000000000000000000000000000000000000000000000000000000000000000000000000000000000000000000000000000000000000000000000000000000000000000000000000000000000000000000000000000000000000000000000000000000000000000000000000000000000000000000000000000000000000000000000000000000000000000000000000000000000000000000000000000000000000000000000000000000000000000000000",
      "type": "0x2",
      "effectiveGasPrice": "0xba782be9"
    },
    {
      "transactionHash": "0x47cdb794bdb4bf801ed4b935049630a875434c372fd39d1353706d0ed759d8fd",
      "transactionIndex": "0x14",
      "blockHash": "0xb39c17a56f054d6646f3e1580dd833cbe310f06ccc9c4ecd902802e41fd30ae2",
      "blockNumber": "0x50d4e4",
      "from": "0x11fc3f5Cc69d96020b000DE9BCA180eeb60CE6CA",
      "to": "0x8103B0A8A00be2DDC778e6e7eaa21791Cd364625",
      "cumulativeGasUsed": "0x2f668c",
      "gasUsed": "0x17312",
      "contractAddress": null,
      "logs": [
        {
          "address": "0x8103B0A8A00be2DDC778e6e7eaa21791Cd364625",
          "topics": [
            "0x43dc749a04ac8fb825cbd514f7c0e13f13bc6f2ee66043b76629d51776cff8e0",
            "0x00000000000000000000000000000000000000000000000000000000000024c3"
          ],
          "data": "0x00000000000000000000000094c16b5fa99211c91a06b5993b4ab8608c8e8b5d",
          "blockHash": "0xb39c17a56f054d6646f3e1580dd833cbe310f06ccc9c4ecd902802e41fd30ae2",
          "blockNumber": "0x50d4e4",
          "transactionHash": "0x47cdb794bdb4bf801ed4b935049630a875434c372fd39d1353706d0ed759d8fd",
          "transactionIndex": "0x14",
          "logIndex": "0x1e",
          "removed": false
        }
      ],
      "status": "0x1",
      "logsBloom": "0x0000000000000000000000000000000000000000000000000000000000008000000000000000000001000000000000000200000000000000000000000000000000000000000000000000000000000000000000000000000000000000000000000000000000008000000000000000000000000000000000000000000000000000000000000c000020000000000000000000000000000000000000000000000000000000000000000000000080000000000000000000000000000000000000000000000000000000000000000000000000000000000000000000020000000000000000000000000000000000000000000000000000000000000000000000000000",
      "type": "0x2",
      "effectiveGasPrice": "0xba782be9"
    }
  ],
  "libraries": [],
  "pending": [],
  "returns": {
    "1": {
      "internal_type": "contract HelperConfig",
      "value": "0xC7f2Cf4845C6db0e1a1e91ED41Bcd0FcC1b0E141"
    },
    "0": {
      "internal_type": "contract Raffle",
      "value": "0x94c16b5FA99211c91A06B5993B4ab8608C8E8b5D"
    }
  },
  "timestamp": 1708045069,
  "chain": 11155111,
  "multi": false,
  "commit": "589583d"
}